{
  "contractName": "Wallet",
  "abi": [
    {
      "inputs": [],
      "stateMutability": "nonpayable",
      "type": "constructor"
    },
    {
      "inputs": [],
      "name": "owner",
      "outputs": [
        {
          "internalType": "address",
          "name": "",
          "type": "address"
        }
      ],
      "stateMutability": "view",
      "type": "function",
      "constant": true
    },
    {
      "inputs": [
        {
          "internalType": "string",
          "name": "currency",
          "type": "string"
        },
        {
          "internalType": "uint256",
          "name": "amount",
          "type": "uint256"
        }
      ],
      "name": "deposit",
      "outputs": [],
      "stateMutability": "nonpayable",
      "type": "function"
    },
    {
      "inputs": [
        {
          "internalType": "address",
          "name": "to",
          "type": "address"
        },
        {
          "internalType": "string",
          "name": "currency",
          "type": "string"
        },
        {
          "internalType": "uint256",
          "name": "amount",
          "type": "uint256"
        }
      ],
      "name": "transfer",
      "outputs": [],
      "stateMutability": "nonpayable",
      "type": "function"
    },
    {
      "inputs": [
        {
          "internalType": "address",
          "name": "user",
          "type": "address"
        },
        {
          "internalType": "string",
          "name": "currency",
          "type": "string"
        }
      ],
      "name": "getBalance",
      "outputs": [
        {
          "internalType": "uint256",
          "name": "",
          "type": "uint256"
        }
      ],
      "stateMutability": "view",
      "type": "function",
      "constant": true
    },
    {
      "inputs": [
        {
          "internalType": "string",
          "name": "sourceCurrency",
          "type": "string"
        },
        {
          "internalType": "string",
          "name": "targetCurrency",
          "type": "string"
        },
        {
          "internalType": "uint256",
          "name": "amount",
          "type": "uint256"
        },
        {
          "internalType": "uint256",
          "name": "rateToUSD",
          "type": "uint256"
        },
        {
          "internalType": "uint256",
          "name": "rateFromUSD",
          "type": "uint256"
        }
      ],
      "name": "convertCurrency",
      "outputs": [],
      "stateMutability": "nonpayable",
      "type": "function"
    }
  ],
  "bytecode": "0x608060405234801561001057600080fd5b50336000806101000a81548173ffffffffffffffffffffffffffffffffffffffff021916908373ffffffffffffffffffffffffffffffffffffffff160217905550610be6806100606000396000f3fe608060405234801561001057600080fd5b50600436106100575760003560e01c80631dd7cecf1461005c5780638da5cb5b1461008c5780638e27d719146100aa578063be6772c8146100c6578063fff3a01b146100e2575b600080fd5b6100766004803603810190610071919061070e565b6100fe565b6040516100839190610783565b60405180910390f35b610094610164565b6040516100a191906107ad565b60405180910390f35b6100c460048036038101906100bf91906107f4565b610188565b005b6100e060048036038101906100db9190610850565b6101fe565b005b6100fc60048036038101906100f79190610903565b6103cf565b005b6000600160008473ffffffffffffffffffffffffffffffffffffffff1673ffffffffffffffffffffffffffffffffffffffff1681526020019081526020016000208260405161014d91906109e3565b908152602001604051809103902054905092915050565b60008054906101000a900473ffffffffffffffffffffffffffffffffffffffff1681565b80600160003373ffffffffffffffffffffffffffffffffffffffff1673ffffffffffffffffffffffffffffffffffffffff168152602001908152602001600020836040516101d691906109e3565b908152602001604051809103902060008282546101f39190610a29565b925050819055505050565b82600160003373ffffffffffffffffffffffffffffffffffffffff1673ffffffffffffffffffffffffffffffffffffffff1681526020019081526020016000208660405161024c91906109e3565b908152602001604051809103902054101561029c576040517f08c379a000000000000000000000000000000000000000000000000000000000815260040161029390610aba565b60405180910390fd5b6000670de0b6b3a764000083856102b39190610ada565b6102bd9190610b4b565b90506000670de0b6b3a764000083836102d69190610ada565b6102e09190610b4b565b905084600160003373ffffffffffffffffffffffffffffffffffffffff1673ffffffffffffffffffffffffffffffffffffffff1681526020019081526020016000208860405161033091906109e3565b9081526020016040518091039020600082825461034d9190610b7c565b9250508190555080600160003373ffffffffffffffffffffffffffffffffffffffff1673ffffffffffffffffffffffffffffffffffffffff168152602001908152602001600020876040516103a291906109e3565b908152602001604051809103902060008282546103bf9190610a29565b9250508190555050505050505050565b80600160003373ffffffffffffffffffffffffffffffffffffffff1673ffffffffffffffffffffffffffffffffffffffff1681526020019081526020016000208360405161041d91906109e3565b908152602001604051809103902054101561046d576040517f08c379a000000000000000000000000000000000000000000000000000000000815260040161046490610aba565b60405180910390fd5b80600160003373ffffffffffffffffffffffffffffffffffffffff1673ffffffffffffffffffffffffffffffffffffffff168152602001908152602001600020836040516104bb91906109e3565b908152602001604051809103902060008282546104d89190610b7c565b9250508190555080600160008573ffffffffffffffffffffffffffffffffffffffff1673ffffffffffffffffffffffffffffffffffffffff1681526020019081526020016000208360405161052d91906109e3565b9081526020016040518091039020600082825461054a9190610a29565b92505081905550505050565b6000604051905090565b600080fd5b600080fd5b600073ffffffffffffffffffffffffffffffffffffffff82169050919050565b60006105958261056a565b9050919050565b6105a58161058a565b81146105b057600080fd5b50565b6000813590506105c28161059c565b92915050565b600080fd5b600080fd5b6000601f19601f8301169050919050565b7f4e487b7100000000000000000000000000000000000000000000000000000000600052604160045260246000fd5b61061b826105d2565b810181811067ffffffffffffffff8211171561063a576106396105e3565b5b80604052505050565b600061064d610556565b90506106598282610612565b919050565b600067ffffffffffffffff821115610679576106786105e3565b5b610682826105d2565b9050602081019050919050565b82818337600083830152505050565b60006106b16106ac8461065e565b610643565b9050828152602081018484840111156106cd576106cc6105cd565b5b6106d884828561068f565b509392505050565b600082601f8301126106f5576106f46105c8565b5b813561070584826020860161069e565b91505092915050565b6000806040838503121561072557610724610560565b5b6000610733858286016105b3565b925050602083013567ffffffffffffffff81111561075457610753610565565b5b610760858286016106e0565b9150509250929050565b6000819050919050565b61077d8161076a565b82525050565b60006020820190506107986000830184610774565b92915050565b6107a78161058a565b82525050565b60006020820190506107c2600083018461079e565b92915050565b6107d18161076a565b81146107dc57600080fd5b50565b6000813590506107ee816107c8565b92915050565b6000806040838503121561080b5761080a610560565b5b600083013567ffffffffffffffff81111561082957610828610565565b5b610835858286016106e0565b9250506020610846858286016107df565b9150509250929050565b600080600080600060a0868803121561086c5761086b610560565b5b600086013567ffffffffffffffff81111561088a57610889610565565b5b610896888289016106e0565b955050602086013567ffffffffffffffff8111156108b7576108b6610565565b5b6108c3888289016106e0565b94505060406108d4888289016107df565b93505060606108e5888289016107df565b92505060806108f6888289016107df565b9150509295509295909350565b60008060006060848603121561091c5761091b610560565b5b600061092a868287016105b3565b935050602084013567ffffffffffffffff81111561094b5761094a610565565b5b610957868287016106e0565b9250506040610968868287016107df565b9150509250925092565b600081519050919050565b600081905092915050565b60005b838110156109a657808201518184015260208101905061098b565b60008484015250505050565b60006109bd82610972565b6109c7818561097d565b93506109d7818560208601610988565b80840191505092915050565b60006109ef82846109b2565b915081905092915050565b7f4e487b7100000000000000000000000000000000000000000000000000000000600052601160045260246000fd5b6000610a348261076a565b9150610a3f8361076a565b9250828201905080821115610a5757610a566109fa565b5b92915050565b600082825260208201905092915050565b7f496e73756666696369656e742062616c616e6365000000000000000000000000600082015250565b6000610aa4601483610a5d565b9150610aaf82610a6e565b602082019050919050565b60006020820190508181036000830152610ad381610a97565b9050919050565b6000610ae58261076a565b9150610af08361076a565b9250828202610afe8161076a565b91508282048414831517610b1557610b146109fa565b5b5092915050565b7f4e487b7100000000000000000000000000000000000000000000000000000000600052601260045260246000fd5b6000610b568261076a565b9150610b618361076a565b925082610b7157610b70610b1c565b5b828204905092915050565b6000610b878261076a565b9150610b928361076a565b9250828203905081811115610baa57610ba96109fa565b5b9291505056fea2646970667358221220a72df296bfdf1f5715d41a5d41853d5f734d9388b41ea4c6806626583e93a31f64736f6c63430008130033",
  "immutableReferences": {},
  "source": "// SPDX-License-Identifier: MIT \n\npragma solidity 0.8.19;\n\ncontract Wallet {\n    address public owner;\n    mapping(address => mapping(string => uint256)) balances;\n\n    constructor() {\n        owner = msg.sender;\n    }\n\n    function deposit(string memory currency, uint256 amount) public {\n        balances[msg.sender][currency] += amount;\n    }\n\n    function transfer(address to, string memory currency, uint256 amount) public {\n        require(balances[msg.sender][currency] >= amount, \"Insufficient balance\");\n        balances[msg.sender][currency] -= amount;\n        balances[to][currency] += amount;\n    }\n\n    function getBalance(address user, string memory currency) public view returns (uint256) {\n        return balances[user][currency];\n    }\n\n    function convertCurrency(string memory sourceCurrency, string memory targetCurrency, uint256 amount, uint256 rateToUSD, uint256 rateFromUSD) public {\n        require(balances[msg.sender][sourceCurrency] >= amount, \"Insufficient balance\");\n        uint256 usdAmount = (amount * rateToUSD) / 1e18;  // Convert to USD\n        uint256 targetAmount = (usdAmount * rateFromUSD) / 1e18;  // Convert from USD to target currency\n        balances[msg.sender][sourceCurrency] -= amount;\n        balances[msg.sender][targetCurrency] += targetAmount;\n    }\n}\n",
  "sourcePath": "/home/dragos/dj/BlockchainProject/blockchain/contracts/Wallet.sol",
  "compiler": {
    "name": "solc",
    "version": "0.8.19+commit.7dd6d404.Emscripten.clang"
  },
  "schemaVersion": "3.4.16",
  "updatedAt": "2024-05-28T09:40:56.629Z",
  "networkType": "ethereum",
  "devdoc": {
    "kind": "dev",
    "methods": {},
    "version": 1
  },
  "userdoc": {
    "kind": "user",
    "methods": {},
    "version": 1
  }
}